{
  "contractName": "DeFiance",
  "abi": [
    {
      "constant": true,
      "inputs": [],
      "name": "name",
      "outputs": [
        {
          "name": "",
          "type": "string"
        }
      ],
      "payable": false,
      "stateMutability": "view",
      "type": "function"
    },
    {
      "constant": true,
      "inputs": [],
      "name": "totalSupply",
      "outputs": [
        {
          "name": "",
          "type": "uint256"
        }
      ],
      "payable": false,
      "stateMutability": "view",
      "type": "function"
    },
    {
      "constant": true,
      "inputs": [],
      "name": "decimals",
      "outputs": [
        {
          "name": "",
          "type": "uint8"
        }
      ],
      "payable": false,
      "stateMutability": "view",
      "type": "function"
    },
    {
      "constant": true,
      "inputs": [
        {
          "name": "",
          "type": "address"
        }
      ],
      "name": "balanceOf",
      "outputs": [
        {
          "name": "",
          "type": "uint256"
        }
      ],
      "payable": false,
      "stateMutability": "view",
      "type": "function"
    },
    {
      "constant": true,
      "inputs": [],
      "name": "symbol",
      "outputs": [
        {
          "name": "",
          "type": "string"
        }
      ],
      "payable": false,
      "stateMutability": "view",
      "type": "function"
    },
    {
      "constant": true,
      "inputs": [
        {
          "name": "",
          "type": "address"
        },
        {
          "name": "",
          "type": "address"
        }
      ],
      "name": "allowance",
      "outputs": [
        {
          "name": "",
          "type": "uint256"
        }
      ],
      "payable": false,
      "stateMutability": "view",
      "type": "function"
    },
    {
      "inputs": [
        {
          "name": "_owner",
          "type": "address"
        }
      ],
      "payable": false,
      "stateMutability": "nonpayable",
      "type": "constructor"
    },
    {
      "anonymous": false,
      "inputs": [
        {
          "indexed": true,
          "name": "_from",
          "type": "address"
        },
        {
          "indexed": true,
          "name": "_to",
          "type": "address"
        },
        {
          "indexed": false,
          "name": "_value",
          "type": "uint256"
        }
      ],
      "name": "Transfer",
      "type": "event"
    },
    {
      "anonymous": false,
      "inputs": [
        {
          "indexed": true,
          "name": "_owner",
          "type": "address"
        },
        {
          "indexed": true,
          "name": "_spender",
          "type": "address"
        },
        {
          "indexed": false,
          "name": "_value",
          "type": "uint256"
        }
      ],
      "name": "Approval",
      "type": "event"
    },
    {
      "anonymous": false,
      "inputs": [
        {
          "indexed": false,
          "name": "_from",
          "type": "address"
        }
      ],
      "name": "AddressIS",
      "type": "event"
    },
    {
      "constant": false,
      "inputs": [
        {
          "name": "_to",
          "type": "address"
        },
        {
          "name": "_value",
          "type": "uint256"
        }
      ],
      "name": "transfer",
      "outputs": [
        {
          "name": "success",
          "type": "bool"
        }
      ],
      "payable": false,
      "stateMutability": "nonpayable",
      "type": "function"
    },
    {
      "constant": false,
      "inputs": [
        {
          "name": "_spender",
          "type": "address"
        },
        {
          "name": "_value",
          "type": "uint256"
        }
      ],
      "name": "approve",
      "outputs": [
        {
          "name": "success",
          "type": "bool"
        }
      ],
      "payable": false,
      "stateMutability": "nonpayable",
      "type": "function"
    },
    {
      "constant": false,
      "inputs": [
        {
          "name": "_from",
          "type": "address"
        },
        {
          "name": "_to",
          "type": "address"
        },
        {
          "name": "_value",
          "type": "uint256"
        }
      ],
      "name": "transferFrom",
      "outputs": [
        {
          "name": "success",
          "type": "bool"
        }
      ],
      "payable": false,
      "stateMutability": "nonpayable",
      "type": "function"
    },
    {
      "constant": true,
      "inputs": [
        {
          "name": "owner",
          "type": "address"
        },
        {
          "name": "spender",
          "type": "address"
        }
      ],
      "name": "allowed",
      "outputs": [
        {
          "name": "",
          "type": "uint256"
        }
      ],
      "payable": false,
      "stateMutability": "view",
      "type": "function"
    }
  ],
  "bytecode": "0x60c0604052600860808190527f44654669616e636500000000000000000000000000000000000000000000000060a090815261003e9160009190610101565b506040805180820190915260038082527f44464e0000000000000000000000000000000000000000000000000000000000602090920191825261008391600191610101565b5060028054601260ff19909116179081905560ff16600a0a620186a0026003553480156100af57600080fd5b506040516107f23803806107f2833981810160405260208110156100d257600080fd5b5051600354336000908152600460205260408082208390556001600160a01b039093168152919091205561019c565b828054600181600116156101000203166002900490600052602060002090601f016020900481019282601f1061014257805160ff191683800117855561016f565b8280016001018555821561016f579182015b8281111561016f578251825591602001919060010190610154565b5061017b92915061017f565b5090565b61019991905b8082111561017b5760008155600101610185565b90565b610647806101ab6000396000f3fe608060405234801561001057600080fd5b506004361061009e5760003560e01c80635c658165116100665780635c658165146101ce57806370a08231146101fc57806395d89b4114610222578063a9059cbb1461022a578063dd62ed3e146102565761009e565b806306fdde03146100a3578063095ea7b31461012057806318160ddd1461016057806323b872dd1461017a578063313ce567146101b0575b600080fd5b6100ab610284565b6040805160208082528351818301528351919283929083019185019080838360005b838110156100e55781810151838201526020016100cd565b50505050905090810190601f1680156101125780820380516001836020036101000a031916815260200191505b509250505060405180910390f35b61014c6004803603604081101561013657600080fd5b506001600160a01b038135169060200135610312565b604080519115158252519081900360200190f35b610168610378565b60408051918252519081900360200190f35b61014c6004803603606081101561019057600080fd5b506001600160a01b0381358116916020810135909116906040013561037e565b6101b8610494565b6040805160ff9092168252519081900360200190f35b610168600480360360408110156101e457600080fd5b506001600160a01b038135811691602001351661049d565b6101686004803603602081101561021257600080fd5b50356001600160a01b03166104c8565b6100ab6104da565b61014c6004803603604081101561024057600080fd5b506001600160a01b038135169060200135610534565b6101686004803603604081101561026c57600080fd5b506001600160a01b03813581169160200135166105f5565b6000805460408051602060026001851615610100026000190190941693909304601f8101849004840282018401909252818152929183018282801561030a5780601f106102df5761010080835404028352916020019161030a565b820191906000526020600020905b8154815290600101906020018083116102ed57829003601f168201915b505050505081565b3360008181526005602090815260408083206001600160a01b038716808552908352818420869055815186815291519394909390927f8c5be1e5ebec7d5bd14f71427d1e84f3dd0314c0f7b2291e5b200ac8c7c3b925928290030190a350600192915050565b60035481565b6040805133815290516000917f5a9813ff9e29ce4bee8e7397d93463c38ac4b39e9df37641af48bdc49b2bad37919081900360200190a16001600160a01b0384166000908152600460205260409020548211156103da57600080fd5b6001600160a01b038416600090815260056020908152604080832033845290915290205482111561040a57600080fd5b6001600160a01b0380851660008181526004602090815260408083208054889003905593871680835284832080548801905583835260058252848320338452825291849020805487900390558351868152935191937fddf252ad1be2c89b69c2b068fc378daa952ba7f163c4a11628f55a4df523b3ef929081900390910190a35060019392505050565b60025460ff1681565b6001600160a01b03918216600090815260056020908152604080832093909416825291909152205490565b60046020526000908152604090205481565b60018054604080516020600284861615610100026000190190941693909304601f8101849004840282018401909252818152929183018282801561030a5780601f106102df5761010080835404028352916020019161030a565b6040805133815290516000917f5a9813ff9e29ce4bee8e7397d93463c38ac4b39e9df37641af48bdc49b2bad37919081900360200190a13360009081526004602052604090205482111561058757600080fd5b336000818152600460209081526040808320805487900390556001600160a01b03871680845292819020805487019055805186815290519293927fddf252ad1be2c89b69c2b068fc378daa952ba7f163c4a11628f55a4df523b3ef929181900390910190a350600192915050565b60056020908152600092835260408084209091529082529020548156fea265627a7a7230582069262f31eaa65286af56090b3cc01864d79ebe3b5ac8c3a9a3b3cc281c92efc064736f6c634300050a0032",
  "source": "pragma solidity ^0.5.0;\n\ncontract DeFiance {\n    string  public name = \"DeFiance\";\n    string  public symbol = \"DFN\";\n    uint8 public decimals = 18;\n\n    uint256 public totalSupply = 100000 * (uint256(10) ** decimals); // 1 million tokens\n\n    event Transfer(\n        address indexed _from,\n        address indexed _to,\n        uint256 _value\n    );\n\n    event Approval(\n        address indexed _owner,\n        address indexed _spender,\n        uint256 _value\n    );\n\n    mapping(address => uint256) public balanceOf;\n    mapping(address => mapping(address => uint256)) public allowance;\n\n    constructor(address _owner) public {\n        balanceOf[msg.sender] = totalSupply;\n        balanceOf[_owner] = totalSupply;\n    }\nevent AddressIS(address _from);\n    function transfer(address _to, uint256 _value) public returns (bool success) {\n        emit AddressIS(msg.sender);\n        require(balanceOf[msg.sender] >= _value);\n        balanceOf[msg.sender] -= _value;\n        balanceOf[_to] += _value;\n        emit Transfer(msg.sender, _to, _value);\n        return true;\n    }\n\n    function approve(address _spender, uint256 _value) public returns (bool success) {\n        allowance[msg.sender][_spender] = _value;\n        emit Approval(msg.sender, _spender, _value);\n        return true;\n    }\n\n    function transferFrom(address _from, address _to, uint256 _value) public returns (bool success) {\n        emit AddressIS(msg.sender);\n        require(_value <= balanceOf[_from]);\n        require(_value <= allowance[_from][msg.sender]);\n        balanceOf[_from] -= _value;\n        balanceOf[_to] += _value;\n        allowance[_from][msg.sender] -= _value;\n        emit Transfer(_from, _to, _value);\n        return true;\n    }\n\n     /**\n     * @dev Function to check the amount of tokens that an owner allowed to a spender.\n     * @param owner address The address which owns the funds.\n     * @param spender address The address which will spend the funds.\n     * @return A uint256 specifying the amount of tokens still available for the spender.\n     */\n    function allowed(address owner, address spender) public view returns (uint256) {\n        return allowance[owner][spender];\n    }\n\n}",
  "sourcePath": "/home/nasir/Desktop/Working/DeFiance/contracts/DeFiance.sol",
  "compiler": {
    "name": "solc",
    "version": "0.5.10+commit.5a6ea5b1.Emscripten.clang"
  },
  "schemaVersion": "3.1.0",
  "updatedAt": "2020-09-01T19:13:00.760Z",
  "networkType": "ethereum",
  "devdoc": {
    "methods": {
      "allowed(address,address)": {
        "details": "Function to check the amount of tokens that an owner allowed to a spender.",
        "params": {
          "owner": "address The address which owns the funds.",
          "spender": "address The address which will spend the funds."
        },
        "return": "A uint256 specifying the amount of tokens still available for the spender."
      }
    }
  },
  "userdoc": {
    "methods": {}
  }
}